:020000000000FE
:020001000001FC
:020002000002FA
:020003000003F8
:020004000004F6
:020005000005F4
:020006000006F2
:020007000007F0
:020008000008EE
:020009000009EC
:02000A00000AEA
:02000B00000BE8
:02000C00000CE6
:02000D00000DE4
:02000E00000EE2
:02000F00000FE0
:020010000010DE
:020011000011DC
:020012000012DA
:020013000013D8
:020014000014D6
:020015000015D4
:020016000016D2
:020017000017D0
:020018000018CE
:020019000019CC
:02001A00001ACA
:02001B00001BC8
:02001C00001CC6
:02001D00001DC4
:02001E00001EC2
:02001F00001FC0
:020020000020BE
:020021000021BC
:020022000022BA
:020023000023B8
:020024000024B6
:020025000025B4
:020026000026B2
:020027000027B0
:020028000028AE
:020029000029AC
:02002A00002AAA
:02002B00002BA8
:02002C00002CA6
:02002D00002DA4
:02002E00002EA2
:02002F00002FA0
:0200300000309E
:0200310000319C
:0200320000329A
:02003300003398
:02003400003496
:02003500003594
:02003600003692
:02003700003790
:0200380000388E
:0200390000398C
:02003A00003A8A
:02003B00003B88
:02003C00003C86
:02003D00003D84
:02003E00003E82
:02003F00003F80
:0200400000407E
:0200410000417C
:0200420000427A
:02004300004378
:02004400004476
:02004500004574
:02004600004672
:02004700004770
:0200480000486E
:0200490000496C
:02004A00004A6A
:02004B00004B68
:02004C00004C66
:02004D00004D64
:02004E00004E62
:02004F00004F60
:0200500000505E
:0200510000515C
:0200520000525A
:02005300005358
:02005400005456
:02005500005554
:02005600005652
:02005700005750
:0200580000584E
:0200590000594C
:02005A00005A4A
:02005B00005B48
:02005C00005C46
:02005D00005D44
:02005E00005E42
:02005F00005F40
:0200600000603E
:0200610000613C
:0200620000623A
:02006300006338
:02006400006436
:02006500006534
:02006600006632
:02006700006730
:0200680000682E
:0200690000692C
:02006A00006A2A
:02006B00006B28
:02006C00006C26
:02006D00006D24
:02006E00006E22
:02006F00006F20
:0200700000701E
:0200710000711C
:0200720000721A
:02007300007318
:02007400007416
:02007500007514
:02007600007612
:02007700007710
:0200780000780E
:0200790000790C
:02007A00007A0A
:02007B00007B08
:02007C00007C06
:02007D00007D04
:02007E00007E02
:02007F00007F00
:020080000080FE
:020081000081FC
:020082000082FA
:020083000083F8
:020084000084F6
:020085000085F4
:020086000086F2
:020087000087F0
:020088000088EE
:020089000089EC
:02008A00008AEA
:02008B00008BE8
:02008C00008CE6
:02008D00008DE4
:02008E00008EE2
:02008F00008FE0
:020090000090DE
:020091000091DC
:020092000092DA
:020093000093D8
:020094000094D6
:020095000095D4
:020096000096D2
:020097000097D0
:020098000098CE
:020099000099CC
:02009A00009ACA
:02009B00009BC8
:02009C00009CC6
:02009D00009DC4
:02009E00009EC2
:02009F00009FC0
:0200A00000A0BE
:0200A10000A1BC
:0200A20000A2BA
:0200A30000A3B8
:0200A40000A4B6
:0200A50000A5B4
:0200A60000A6B2
:0200A70000A7B0
:0200A80000A8AE
:0200A90000A9AC
:0200AA0000AAAA
:0200AB0000ABA8
:0200AC0000ACA6
:0200AD0000ADA4
:0200AE0000AEA2
:0200AF0000AFA0
:0200B00000B09E
:0200B10000B19C
:0200B20000B29A
:0200B30000B398
:0200B40000B496
:0200B50000B594
:0200B60000B692
:0200B70000B790
:0200B80000B88E
:0200B90000B98C
:0200BA0000BA8A
:0200BB0000BB88
:0200BC0000BC86
:0200BD0000BD84
:0200BE0000BE82
:0200BF0000BF80
:0200C00000C07E
:0200C10000C17C
:0200C20000C27A
:0200C30000C378
:0200C40000C476
:0200C50000C574
:0200C60000C672
:0200C70000C770
:0200C80000C86E
:0200C90000C96C
:0200CA0000CA6A
:0200CB0000CB68
:0200CC0000CC66
:0200CD0000CD64
:0200CE0000CE62
:0200CF0000CF60
:0200D00000D05E
:0200D10000D15C
:0200D20000D25A
:0200D30000D358
:0200D40000D456
:0200D50000D554
:0200D60000D652
:0200D70000D750
:0200D80000D84E
:0200D90000D94C
:0200DA0000DA4A
:0200DB0000DB48
:0200DC0000DC46
:0200DD0000DD44
:0200DE0000DE42
:0200DF0000DF40
:0200E00000E03E
:0200E10000E13C
:0200E20000E23A
:0200E30000E338
:0200E40000E436
:0200E50000E534
:0200E60000E632
:0200E70000E730
:0200E80000E82E
:0200E90000E92C
:0200EA0000EA2A
:0200EB0000EB28
:0200EC0000EC26
:0200ED0000ED24
:0200EE0000EE22
:0200EF0000EF20
:0200F00000F01E
:0200F10000F11C
:0200F20000F21A
:0200F30000F318
:0200F40000F416
:0200F50000F514
:0200F60000F612
:0200F70000F710
:0200F80000F80E
:0200F90000F90C
:0200FA0000FA0A
:0200FB0000FB08
:0200FC0000FC06
:0200FD0000FD04
:0200FE0000FE02
:0200FF0000FF00
:020100000100FC
:020101000101FA
:020102000102F8
:020103000103F6
:020104000104F4
:020105000105F2
:020106000106F0
:020107000107EE
:020108000108EC
:020109000109EA
:02010A00010AE8
:02010B00010BE6
:02010C00010CE4
:02010D00010DE2
:02010E00010EE0
:02010F00010FDE
:020110000110DC
:020111000111DA
:020112000112D8
:020113000113D6
:020114000114D4
:020115000115D2
:020116000116D0
:020117000117CE
:020118000118CC
:020119000119CA
:02011A00011AC8
:02011B00011BC6
:02011C00011CC4
:02011D00011DC2
:02011E00011EC0
:02011F00011FBE
:020120000120BC
:020121000121BA
:020122000122B8
:020123000123B6
:020124000124B4
:020125000125B2
:020126000126B0
:020127000127AE
:020128000128AC
:020129000129AA
:02012A00012AA8
:02012B00012BA6
:02012C00012CA4
:02012D00012DA2
:02012E00012EA0
:02012F00012F9E
:0201300001309C
:0201310001319A
:02013200013298
:02013300013396
:02013400013494
:02013500013592
:02013600013690
:0201370001378E
:0201380001388C
:0201390001398A
:02013A00013A88
:02013B00013B86
:02013C00013C84
:02013D00013D82
:02013E00013E80
:02013F00013F7E
:0201400001407C
:0201410001417A
:02014200014278
:02014300014376
:02014400014474
:02014500014572
:02014600014670
:0201470001476E
:0201480001486C
:0201490001496A
:02014A00014A68
:02014B00014B66
:02014C00014C64
:02014D00014D62
:02014E00014E60
:02014F00014F5E
:0201500001505C
:0201510001515A
:02015200015258
:02015300015356
:02015400015454
:02015500015552
:02015600015650
:0201570001574E
:0201580001584C
:0201590001594A
:02015A00015A48
:02015B00015B46
:02015C00015C44
:02015D00015D42
:02015E00015E40
:02015F00015F3E
:0201600001603C
:0201610001613A
:02016200016238
:02016300016336
:02016400016434
:02016500016532
:02016600016630
:0201670001672E
:0201680001682C
:0201690001692A
:02016A00016A28
:02016B00016B26
:02016C00016C24
:02016D00016D22
:02016E00016E20
:02016F00016F1E
:0201700001701C
:0201710001711A
:02017200017218
:02017300017316
:02017400017414
:02017500017512
:02017600017610
:0201770001770E
:0201780001780C
:0201790001790A
:02017A00017A08
:02017B00017B06
:02017C00017C04
:02017D00017D02
:02017E00017E00
:02017F00017FFE
:020180000180FC
:020181000181FA
:020182000182F8
:020183000183F6
:020184000184F4
:020185000185F2
:020186000186F0
:020187000187EE
:020188000188EC
:020189000189EA
:02018A00018AE8
:02018B00018BE6
:02018C00018CE4
:02018D00018DE2
:02018E00018EE0
:02018F00018FDE
:020190000190DC
:020191000191DA
:020192000192D8
:020193000193D6
:020194000194D4
:020195000195D2
:020196000196D0
:020197000197CE
:020198000198CC
:020199000199CA
:02019A00019AC8
:02019B00019BC6
:02019C00019CC4
:02019D00019DC2
:02019E00019EC0
:02019F00019FBE
:0201A00001A0BC
:0201A10001A1BA
:0201A20001A2B8
:0201A30001A3B6
:0201A40001A4B4
:0201A50001A5B2
:0201A60001A6B0
:0201A70001A7AE
:0201A80001A8AC
:0201A90001A9AA
:0201AA0001AAA8
:0201AB0001ABA6
:0201AC0001ACA4
:0201AD0001ADA2
:0201AE0001AEA0
:0201AF0001AF9E
:0201B00001B09C
:0201B10001B19A
:0201B20001B298
:0201B30001B396
:0201B40001B494
:0201B50001B592
:0201B60001B690
:0201B70001B78E
:0201B80001B88C
:0201B90001B98A
:0201BA0001BA88
:0201BB0001BB86
:0201BC0001BC84
:0201BD0001BD82
:0201BE0001BE80
:0201BF0001BF7E
:0201C00001C07C
:0201C10001C17A
:0201C20001C278
:0201C30001C376
:0201C40001C474
:0201C50001C572
:0201C60001C670
:0201C70001C76E
:0201C80001C86C
:0201C90001C96A
:0201CA0001CA68
:0201CB0001CB66
:0201CC0001CC64
:0201CD0001CD62
:0201CE0001CE60
:0201CF0001CF5E
:0201D00001D05C
:0201D10001D15A
:0201D20001D258
:0201D30001D356
:0201D40001D454
:0201D50001D552
:0201D60001D650
:0201D70001D74E
:0201D80001D84C
:0201D90001D94A
:0201DA0001DA48
:0201DB0001DB46
:0201DC0001DC44
:0201DD0001DD42
:0201DE0001DE40
:0201DF0001DF3E
:0201E00001E03C
:0201E10001E13A
:0201E20001E238
:0201E30001E336
:0201E40001E434
:0201E50001E532
:0201E60001E630
:0201E70001E72E
:0201E80001E82C
:0201E90001E92A
:0201EA0001EA28
:0201EB0001EB26
:0201EC0001EC24
:0201ED0001ED22
:0201EE0001EE20
:0201EF0001EF1E
:0201F00001F01C
:0201F10001F11A
:0201F20001F218
:0201F30001F316
:0201F40001F414
:0201F50001F512
:0201F60001F610
:0201F70001F70E
:0201F80001F80C
:0201F90001F90A
:0201FA0001FA08
:0201FB0001FB06
:0201FC0001FC04
:0201FD0001FD02
:0201FE0001FE00
:0201FF0001FFFE
:020200000200FA
:020201000201F8
:020202000202F6
:020203000203F4
:020204000204F2
:020205000205F0
:020206000206EE
:020207000207EC
:020208000208EA
:020209000209E8
:02020A00020AE6
:02020B00020BE4
:02020C00020CE2
:02020D00020DE0
:02020E00020EDE
:02020F00020FDC
:020210000210DA
:020211000211D8
:020212000212D6
:020213000213D4
:020214000214D2
:020215000215D0
:020216000216CE
:020217000217CC
:020218000218CA
:020219000219C8
:02021A00021AC6
:02021B00021BC4
:02021C00021CC2
:02021D00021DC0
:02021E00021EBE
:02021F00021FBC
:020220000220BA
:020221000221B8
:020222000222B6
:020223000223B4
:020224000224B2
:020225000225B0
:020226000226AE
:020227000227AC
:020228000228AA
:020229000229A8
:02022A00022AA6
:02022B00022BA4
:02022C00022CA2
:02022D00022DA0
:02022E00022E9E
:02022F00022F9C
:0202300002309A
:02023100023198
:02023200023296
:02023300023394
:02023400023492
:02023500023590
:0202360002368E
:0202370002378C
:0202380002388A
:02023900023988
:02023A00023A86
:02023B00023B84
:02023C00023C82
:02023D00023D80
:02023E00023E7E
:02023F00023F7C
:0202400002407A
:02024100024178
:02024200024276
:02024300024374
:02024400024472
:02024500024570
:0202460002466E
:0202470002476C
:0202480002486A
:02024900024968
:02024A00024A66
:02024B00024B64
:02024C00024C62
:02024D00024D60
:02024E00024E5E
:02024F00024F5C
:0202500002505A
:02025100025158
:02025200025256
:02025300025354
:02025400025452
:02025500025550
:0202560002564E
:0202570002574C
:0202580002584A
:02025900025948
:02025A00025A46
:02025B00025B44
:02025C00025C42
:02025D00025D40
:02025E00025E3E
:02025F00025F3C
:0202600002603A
:02026100026138
:02026200026236
:02026300026334
:02026400026432
:02026500026530
:0202660002662E
:0202670002672C
:0202680002682A
:02026900026928
:02026A00026A26
:02026B00026B24
:02026C00026C22
:02026D00026D20
:02026E00026E1E
:02026F00026F1C
:0202700002701A
:02027100027118
:02027200027216
:02027300027314
:02027400027412
:02027500027510
:0202760002760E
:0202770002770C
:0202780002780A
:02027900027908
:02027A00027A06
:02027B00027B04
:02027C00027C02
:02027D00027D00
:02027E00027EFE
:02027F00027FFC
:020280000280FA
:020281000281F8
:020282000282F6
:020283000283F4
:020284000284F2
:020285000285F0
:020286000286EE
:020287000287EC
:020288000288EA
:020289000289E8
:02028A00028AE6
:02028B00028BE4
:02028C00028CE2
:02028D00028DE0
:02028E00028EDE
:02028F00028FDC
:020290000290DA
:020291000291D8
:020292000292D6
:020293000293D4
:020294000294D2
:020295000295D0
:020296000296CE
:020297000297CC
:020298000298CA
:020299000299C8
:02029A00029AC6
:02029B00029BC4
:02029C00029CC2
:02029D00029DC0
:02029E00029EBE
:02029F00029FBC
:0202A00002A0BA
:0202A10002A1B8
:0202A20002A2B6
:0202A30002A3B4
:0202A40002A4B2
:0202A50002A5B0
:0202A60002A6AE
:0202A70002A7AC
:0202A80002A8AA
:0202A90002A9A8
:0202AA0002AAA6
:0202AB0002ABA4
:0202AC0002ACA2
:0202AD0002ADA0
:0202AE0002AE9E
:0202AF0002AF9C
:0202B00002B09A
:0202B10002B198
:0202B20002B296
:0202B30002B394
:0202B40002B492
:0202B50002B590
:0202B60002B68E
:0202B70002B78C
:0202B80002B88A
:0202B90002B988
:0202BA0002BA86
:0202BB0002BB84
:0202BC0002BC82
:0202BD0002BD80
:0202BE0002BE7E
:0202BF0002BF7C
:0202C00002C07A
:0202C10002C178
:0202C20002C276
:0202C30002C374
:0202C40002C472
:0202C50002C570
:0202C60002C66E
:0202C70002C76C
:0202C80002C86A
:0202C90002C968
:0202CA0002CA66
:0202CB0002CB64
:0202CC0002CC62
:0202CD0002CD60
:0202CE0002CE5E
:0202CF0002CF5C
:0202D00002D05A
:0202D10002D158
:0202D20002D256
:0202D30002D354
:0202D40002D452
:0202D50002D550
:0202D60002D64E
:0202D70002D74C
:0202D80002D84A
:0202D90002D948
:0202DA0002DA46
:0202DB0002DB44
:0202DC0002DC42
:0202DD0002DD40
:0202DE0002DE3E
:0202DF0002DF3C
:0202E00002E03A
:0202E10002E138
:0202E20002E236
:0202E30002E334
:0202E40002E432
:0202E50002E530
:0202E60002E62E
:0202E70002E72C
:0202E80002E82A
:0202E90002E928
:0202EA0002EA26
:0202EB0002EB24
:0202EC0002EC22
:0202ED0002ED20
:0202EE0002EE1E
:0202EF0002EF1C
:0202F00002F01A
:0202F10002F118
:0202F20002F216
:0202F30002F314
:0202F40002F412
:0202F50002F510
:0202F60002F60E
:0202F70002F70C
:0202F80002F80A
:0202F90002F908
:0202FA0002FA06
:0202FB0002FB04
:0202FC0002FC02
:0202FD0002FD00
:0202FE0002FEFE
:0202FF0002FFFC
:020300000300F8
:020301000301F6
:020302000302F4
:020303000303F2
:020304000304F0
:020305000305EE
:020306000306EC
:020307000307EA
:020308000308E8
:020309000309E6
:02030A00030AE4
:02030B00030BE2
:02030C00030CE0
:02030D00030DDE
:02030E00030EDC
:02030F00030FDA
:020310000310D8
:020311000311D6
:020312000312D4
:020313000313D2
:020314000314D0
:020315000315CE
:020316000316CC
:020317000317CA
:020318000318C8
:020319000319C6
:02031A00031AC4
:02031B00031BC2
:02031C00031CC0
:02031D00031DBE
:02031E00031EBC
:02031F00031FBA
:020320000320B8
:020321000321B6
:020322000322B4
:020323000323B2
:020324000324B0
:020325000325AE
:020326000326AC
:020327000327AA
:020328000328A8
:020329000329A6
:02032A00032AA4
:02032B00032BA2
:02032C00032CA0
:02032D00032D9E
:02032E00032E9C
:02032F00032F9A
:02033000033098
:02033100033196
:02033200033294
:02033300033392
:02033400033490
:0203350003358E
:0203360003368C
:0203370003378A
:02033800033888
:02033900033986
:02033A00033A84
:02033B00033B82
:02033C00033C80
:02033D00033D7E
:02033E00033E7C
:02033F00033F7A
:02034000034078
:02034100034176
:02034200034274
:02034300034372
:02034400034470
:0203450003456E
:0203460003466C
:0203470003476A
:02034800034868
:02034900034966
:02034A00034A64
:02034B00034B62
:02034C00034C60
:02034D00034D5E
:02034E00034E5C
:02034F00034F5A
:02035000035058
:02035100035156
:02035200035254
:02035300035352
:02035400035450
:0203550003554E
:0203560003564C
:0203570003574A
:02035800035848
:02035900035946
:02035A00035A44
:02035B00035B42
:02035C00035C40
:02035D00035D3E
:02035E00035E3C
:02035F00035F3A
:02036000036038
:02036100036136
:02036200036234
:02036300036332
:02036400036430
:0203650003652E
:0203660003662C
:0203670003672A
:02036800036828
:02036900036926
:02036A00036A24
:02036B00036B22
:02036C00036C20
:02036D00036D1E
:02036E00036E1C
:02036F00036F1A
:02037000037018
:02037100037116
:02037200037214
:02037300037312
:02037400037410
:0203750003750E
:0203760003760C
:0203770003770A
:02037800037808
:02037900037906
:02037A00037A04
:02037B00037B02
:02037C00037C00
:02037D00037DFE
:02037E00037EFC
:02037F00037FFA
:020380000380F8
:020381000381F6
:020382000382F4
:020383000383F2
:020384000384F0
:020385000385EE
:020386000386EC
:020387000387EA
:020388000388E8
:020389000389E6
:02038A00038AE4
:02038B00038BE2
:02038C00038CE0
:02038D00038DDE
:02038E00038EDC
:02038F00038FDA
:020390000390D8
:020391000391D6
:020392000392D4
:020393000393D2
:020394000394D0
:020395000395CE
:020396000396CC
:020397000397CA
:020398000398C8
:020399000399C6
:02039A00039AC4
:02039B00039BC2
:02039C00039CC0
:02039D00039DBE
:02039E00039EBC
:02039F00039FBA
:0203A00003A0B8
:0203A10003A1B6
:0203A20003A2B4
:0203A30003A3B2
:0203A40003A4B0
:0203A50003A5AE
:0203A60003A6AC
:0203A70003A7AA
:0203A80003A8A8
:0203A90003A9A6
:0203AA0003AAA4
:0203AB0003ABA2
:0203AC0003ACA0
:0203AD0003AD9E
:0203AE0003AE9C
:0203AF0003AF9A
:0203B00003B098
:0203B10003B196
:0203B20003B294
:0203B30003B392
:0203B40003B490
:0203B50003B58E
:0203B60003B68C
:0203B70003B78A
:0203B80003B888
:0203B90003B986
:0203BA0003BA84
:0203BB0003BB82
:0203BC0003BC80
:0203BD0003BD7E
:0203BE0003BE7C
:0203BF0003BF7A
:0203C00003C078
:0203C10003C176
:0203C20003C274
:0203C30003C372
:0203C40003C470
:0203C50003C56E
:0203C60003C66C
:0203C70003C76A
:0203C80003C868
:0203C90003C966
:0203CA0003CA64
:0203CB0003CB62
:0203CC0003CC60
:0203CD0003CD5E
:0203CE0003CE5C
:0203CF0003CF5A
:00000001FF
