:0400000000004000BC
:0400040000004000B8
:0400080000004000B4
:04000C0000004000B0
:0400100000004000AC
:0400140000004000A8
:0400180000004000A4
:04001C0000004000A0
:04002000000040009C
:040024000000400098
:040028000000400094
:04002C000000400090
:04003000000040008C
:040034000000400088
:040038000000400084
:04003C000000400080
:04004000000040007C
:040044000000400078
:040048000000400074
:04004C000000400070
:04005000000040006C
:040054000000400068
:040058000000400064
:04005C000000400060
:04006000000040005C
:040064000000400058
:040068000000400054
:04006C000000400050
:04007000000040004C
:040074000000400048
:040078000000400044
:04007C000000400040
:04008000000040003C
:040084000000400038
:040088000000400034
:04008C000000400030
:04009000000040002C
:040094000000400028
:040098000000400024
:04009C000000400020
:0400A000000040001C
:0400A4000000400018
:0400A8000000400014
:0400AC000000400010
:0400B000000040000C
:0400B4000000400008
:0400B8000000400004
:0400BC000000400000
:0400C00000004000FC
:0400C40000004000F8
:0400C80000004000F4
:0400CC0000004000F0
:0400D00000004000EC
:0400D40000004000E8
:0400D80000004000E4
:0400DC0000004000E0
:0400E00000004000DC
:0400E40000004000D8
:0400E80000004000D4
:0400EC0000004000D0
:0400F00000004000CC
:0400F40000004000C8
:0400F80000004000C4
:0400FC0000004000C0
:0401000000004000BB
:0401040000004000B7
:0401080000004000B3
:04010C0000004000AF
:0401100000004000AB
:0401140000004000A7
:0401180000004000A3
:04011C00000040009F
:04012000000040009B
:040124000000400097
:040128000000400093
:04012C00000040008F
:04013000000040008B
:040134000000400087
:040138000000400083
:04013C00000040007F
:04014000000040007B
:040144000000400077
:040148000000400073
:04014C00000040006F
:04015000000040006B
:040154000000400067
:040158000000400063
:04015C00000040005F
:04016000000040005B
:040164000000400057
:040168000000400053
:04016C00000040004F
:04017000000040004B
:040174000000400047
:040178000000400043
:04017C00000040003F
:04018000000040003B
:040184000000400037
:040188000000400033
:04018C00000040002F
:04019000000040002B
:040194000000400027
:040198000000400023
:04019C00000040001F
:0401A000000040001B
:0401A4000000400017
:0401A8000000400013
:0401AC00000040000F
:0401B000000040000B
:0401B4000000400007
:0401B8000000400003
:0401BC0000004000FF
:0401C00000004000FB
:0401C40000004000F7
:0401C80000004000F3
:0401CC0000004000EF
:0401D00000004000EB
:0401D40000004000E7
:0401D80000004000E3
:0401DC0000004000DF
:0401E00000004000DB
:0401E40000004000D7
:0401E80000004000D3
:0401EC0000004000CF
:0401F00000004000CB
:0401F40000004000C7
:0401F80000004000C3
:0401FC0000004000BF
:0402000000004000BA
:0402040000004000B6
:0402080000004000B2
:04020C0000004000AE
:0402100000004000AA
:0402140000004000A6
:0402180000004000A2
:04021C00000040009E
:04022000000040009A
:040224000000400096
:040228000000400092
:04022C00000040008E
:04023000000040008A
:040234000000400086
:040238000000400082
:04023C00000040007E
:04024000000040007A
:040244000000400076
:040248000000400072
:04024C00000040006E
:04025000000040006A
:040254000000400066
:040258000000400062
:04025C00000040005E
:04026000000040005A
:040264000000400056
:040268000000400052
:04026C00000040004E
:04027000000040004A
:040274000000400046
:040278000000400042
:04027C00000040003E
:04028000000040003A
:040284000000400036
:040288000000400032
:04028C00000040002E
:04029000000040002A
:040294000000400026
:040298000000400022
:04029C00000040001E
:0402A000000040001A
:0402A4000000400016
:0402A8000000400012
:0402AC00000040000E
:0402B000000040000A
:0402B4000000400006
:0402B8000000400002
:0402BC0000004000FE
:0402C00000004000FA
:0402C40000004000F6
:0402C80000004000F2
:0402CC0000004000EE
:0402D00000004000EA
:0402D40000004000E6
:0402D80000004000E2
:0402DC0000004000DE
:0402E00000004000DA
:0402E40000004000D6
:0402E80000004000D2
:0402EC0000004000CE
:0402F00000004000CA
:0402F40000004000C6
:0402F80000004000C2
:0402FC0000004000BE
:0403000000004000B9
:0403040000004000B5
:0403080000004000B1
:04030C0000004000AD
:0403100000004000A9
:0403140000004000A5
:0403180000004000A1
:04031C00000040009D
:040320000000400099
:040324000000400095
:040328000000400091
:04032C00000040008D
:040330000000400089
:040334000000400085
:040338000000400081
:04033C00000040007D
:040340000000400079
:040344000000400075
:040348000000400071
:04034C00000040006D
:040350000000400069
:040354000000400065
:040358000000400061
:04035C00000040005D
:040360000000400059
:040364000000400055
:040368000000400051
:04036C00000040004D
:040370000000400049
:040374000000400045
:040378000000400041
:04037C00000040003D
:040380000000400039
:040384000000400035
:040388000000400031
:04038C00000040002D
:040390000000400029
:040394000000400025
:040398000000400021
:04039C00000040001D
:0403A0000000400019
:0403A4000000400015
:0403A8000000400011
:0403AC00000040000D
:0403B0000000400009
:0403B4000000400005
:0403B8000000400001
:0403BC0000004000FD
:0403C00000004000F9
:0403C40000004000F5
:0403C80000004000F1
:0403CC0000004000ED
:0403D00000004000E9
:0403D40000004000E5
:0403D80000004000E1
:0403DC0000004000DD
:0403E00000004000D9
:0403E40000004000D5
:0403E80000004000D1
:0403EC0000004000CD
:0403F00000004000C9
:0403F40000004000C5
:0403F80000004000C1
:0403FC0000004000BD
:0404000000004000B8
:0404040000004000B4
:0404080000004000B0
:04040C0000004000AC
:0404100000004000A8
:0404140000004000A4
:0404180000004000A0
:04041C00000040009C
:040420000000400098
:040424000000400094
:040428000000400090
:04042C00000040008C
:040430000000400088
:040434000000400084
:040438000000400080
:04043C00000040007C
:040440000000400078
:040444000000400074
:040448000000400070
:04044C00000040006C
:040450000000400068
:040454000000400064
:040458000000400060
:04045C00000040005C
:040460000000400058
:040464000000400054
:040468000000400050
:04046C00000040004C
:040470000000400048
:040474000000400044
:040478000000400040
:04047C00000040003C
:040480000000400038
:040484000000400034
:040488000000400030
:04048C00000040002C
:040490000000400028
:040494000000400024
:040498000000400020
:04049C00000040001C
:0404A0000000400018
:0404A4000000400014
:0404A8000000400010
:0404AC00000040000C
:0404B0000000400008
:0404B4000000400004
:0404B8000000400000
:0404BC0000004000FC
:0404C00000004000F8
:0404C40000004000F4
:0404C80000004000F0
:0404CC0000004000EC
:0404D00000004000E8
:0404D40000004000E4
:0404D80000004000E0
:0404DC0000004000DC
:0404E00000004000D8
:0404E40000004000D4
:0404E80000004000D0
:0404EC0000004000CC
:0404F00000004000C8
:0404F40000004000C4
:0404F80000004000C0
:0404FC0000004000BC
:0405000000004000B7
:0405040000004000B3
:0405080000004000AF
:04050C0000004000AB
:0405100000004000A7
:0405140000004000A3
:04051800000040009F
:04051C00000040009B
:040520000000400097
:040524000000400093
:04052800000040008F
:04052C00000040008B
:040530000000400087
:040534000000400083
:04053800000040007F
:04053C00000040007B
:040540000000400077
:040544000000400073
:04054800000040006F
:04054C00000040006B
:040550000000400067
:040554000000400063
:04055800000040005F
:04055C00000040005B
:040560000000400057
:040564000000400053
:04056800000040004F
:04056C00000040004B
:040570000000400047
:040574000000400043
:04057800000040003F
:04057C00000040003B
:040580000000400037
:040584000000400033
:04058800000040002F
:04058C00000040002B
:040590000000400027
:040594000000400023
:04059800000040001F
:04059C00000040001B
:0405A0000000400017
:0405A4000000400013
:0405A800000040000F
:0405AC00000040000B
:0405B0000000400007
:0405B4000000400003
:0405B80000004000FF
:0405BC0000004000FB
:0405C00000004000F7
:0405C40000004000F3
:0405C80000004000EF
:0405CC0000004000EB
:0405D00000004000E7
:0405D40000004000E3
:0405D80000004000DF
:0405DC0000004000DB
:0405E00000004000D7
:0405E40000004000D3
:0405E80000004000CF
:0405EC0000004000CB
:0405F00000004000C7
:0405F40000004000C3
:0405F80000004000BF
:0405FC0000004000BB
:0406000000004000B6
:0406040000004000B2
:0406080000004000AE
:04060C0000004000AA
:0406100000004000A6
:0406140000004000A2
:04061800000040009E
:04061C00000040009A
:040620000000400096
:040624000000400092
:04062800000040008E
:04062C00000040008A
:040630000000400086
:040634000000400082
:04063800000040007E
:04063C00000040007A
:040640000000400076
:040644000000400072
:04064800000040006E
:04064C00000040006A
:040650000000400066
:040654000000400062
:04065800000040005E
:04065C00000040005A
:040660000000400056
:040664000000400052
:04066800000040004E
:04066C00000040004A
:040670000000400046
:040674000000400042
:04067800000040003E
:04067C00000040003A
:040680000000400036
:040684000000400032
:04068800000040002E
:04068C00000040002A
:040690000000400026
:040694000000400022
:04069800000040001E
:04069C00000040001A
:0406A0000000400016
:0406A4000000400012
:0406A800000040000E
:0406AC00000040000A
:0406B0000000400006
:0406B4000000400002
:0406B80000004000FE
:0406BC0000004000FA
:0406C00000004000F6
:0406C40000004000F2
:0406C80000004000EE
:0406CC0000004000EA
:0406D00000004000E6
:0406D40000004000E2
:0406D80000004000DE
:0406DC0000004000DA
:0406E00000004000D6
:0406E40000004000D2
:0406E80000004000CE
:0406EC0000004000CA
:0406F00000004000C6
:0406F40000004000C2
:0406F80000004000BE
:0406FC0000004000BA
:0407000000004000B5
:0407040000004000B1
:0407080000004000AD
:04070C0000004000A9
:0407100000004000A5
:0407140000004000A1
:04071800000040009D
:04071C000000400099
:040720000000400095
:040724000000400091
:04072800000040008D
:04072C000000400089
:040730000000400085
:040734000000400081
:04073800000040007D
:04073C000000400079
:040740000000400075
:040744000000400071
:04074800000040006D
:04074C000000400069
:040750000000400065
:040754000000400061
:04075800000040005D
:04075C000000400059
:040760000000400055
:040764000000400051
:04076800000040004D
:04076C000000400049
:040770000000400045
:040774000000400041
:04077800000040003D
:04077C000000400039
:040780000000400035
:040784000000400031
:04078800000040002D
:04078C000000400029
:040790000000400025
:040794000000400021
:04079800000040001D
:04079C000000400019
:0407A0000000400015
:0407A4000000400011
:0407A800000040000D
:0407AC000000400009
:0407B0000000400005
:0407B4000000400001
:0407B80000004000FD
:0407BC0000004000F9
:0407C00000004000F5
:0407C40000004000F1
:0407C80000004000ED
:0407CC0000004000E9
:0407D00000004000E5
:0407D40000004000E1
:0407D80000004000DD
:0407DC0000004000D9
:0407E00000004000D5
:0407E40000004000D1
:0407E80000004000CD
:0407EC0000004000C9
:0407F00000004000C5
:0407F40000004000C1
:0407F80000004000BD
:0407FC0000004000B9
:0408000000004000B4
:0408040000004000B0
:0408080000004000AC
:04080C0000004000A8
:0408100000004000A4
:0408140000004000A0
:04081800000040009C
:04081C000000400098
:040820000000400094
:040824000000400090
:04082800000040008C
:04082C000000400088
:040830000000400084
:040834000000400080
:04083800000040007C
:04083C000000400078
:040840000000400074
:040844000000400070
:04084800000040006C
:04084C000000400068
:040850000000400064
:040854000000400060
:04085800000040005C
:04085C000000400058
:040860000000400054
:040864000000400050
:04086800000040004C
:04086C000000400048
:040870000000400044
:040874000000400040
:04087800000040003C
:04087C000000400038
:040880000000400034
:040884000000400030
:04088800000040002C
:04088C000000400028
:040890000000400024
:040894000000400020
:04089800000040001C
:04089C000000400018
:0408A0000000400014
:0408A4000000400010
:0408A800000040000C
:0408AC000000400008
:0408B0000000400004
:0408B4000000400000
:0408B80000004000FC
:0408BC0000004000F8
:0408C00000004000F4
:0408C40000004000F0
:0408C80000004000EC
:0408CC0000004000E8
:0408D00000004000E4
:0408D40000004000E0
:0408D80000004000DC
:0408DC0000004000D8
:0408E00000004000D4
:0408E40000004000D0
:0408E80000004000CC
:0408EC0000004000C8
:0408F00000004000C4
:0408F40000004000C0
:0408F80000004000BC
:0408FC0000004000B8
:0409000000004000B3
:0409040000004000AF
:0409080000004000AB
:04090C0000004000A7
:0409100000004000A3
:04091400000040009F
:04091800000040009B
:04091C000000400097
:040920000000400093
:04092400000040008F
:04092800000040008B
:04092C000000400087
:040930000000400083
:04093400000040007F
:04093800000040007B
:04093C000000400077
:040940000000400073
:04094400000040006F
:04094800000040006B
:04094C000000400067
:040950000000400063
:04095400000040005F
:04095800000040005B
:04095C000000400057
:040960000000400053
:04096400000040004F
:04096800000040004B
:04096C000000400047
:040970000000400043
:04097400000040003F
:04097800000040003B
:04097C000000400037
:040980000000400033
:04098400000040002F
:04098800000040002B
:04098C000000400027
:040990000000400023
:04099400000040001F
:04099800000040001B
:04099C000000400017
:0409A0000000400013
:0409A400000040000F
:0409A800000040000B
:0409AC000000400007
:0409B0000000400003
:0409B40000004000FF
:0409B80000004000FB
:0409BC0000004000F7
:0409C00000004000F3
:0409C40000004000EF
:0409C80000004000EB
:0409CC0000004000E7
:0409D00000004000E3
:0409D40000004000DF
:0409D80000004000DB
:0409DC0000004000D7
:0409E00000004000D3
:0409E40000004000CF
:0409E80000004000CB
:0409EC0000004000C7
:0409F00000004000C3
:0409F40000004000BF
:0409F80000004000BB
:0409FC0000004000B7
:040A000000004000B2
:040A040000004000AE
:040A080000004000AA
:040A0C0000004000A6
:040A100000004000A2
:040A1400000040009E
:040A1800000040009A
:040A1C000000400096
:040A20000000400092
:040A2400000040008E
:040A2800000040008A
:040A2C000000400086
:040A30000000400082
:040A3400000040007E
:040A3800000040007A
:040A3C000000400076
:040A40000000400072
:040A4400000040006E
:040A4800000040006A
:040A4C000000400066
:040A50000000400062
:040A5400000040005E
:040A5800000040005A
:040A5C000000400056
:040A60000000400052
:040A6400000040004E
:040A6800000040004A
:040A6C000000400046
:040A70000000400042
:040A7400000040003E
:040A7800000040003A
:040A7C000000400036
:040A80000000400032
:040A8400000040002E
:040A8800000040002A
:040A8C000000400026
:040A90000000400022
:040A9400000040001E
:040A9800000040001A
:040A9C000000400016
:040AA0000000400012
:040AA400000040000E
:040AA800000040000A
:040AAC000000400006
:040AB0000000400002
:040AB40000004000FE
:040AB80000004000FA
:040ABC0000004000F6
:040AC00000004000F2
:040AC40000004000EE
:040AC80000004000EA
:040ACC0000004000E6
:040AD00000004000E2
:040AD40000004000DE
:040AD80000004000DA
:040ADC0000004000D6
:040AE00000004000D2
:040AE40000004000CE
:040AE80000004000CA
:040AEC0000004000C6
:040AF00000004000C2
:040AF40000004000BE
:040AF80000004000BA
:040AFC0000004000B6
:040B000000004000B1
:040B040000004000AD
:040B080000004000A9
:040B0C0000004000A5
:040B100000004000A1
:040B1400000040009D
:040B18000000400099
:040B1C000000400095
:040B20000000400091
:040B2400000040008D
:040B28000000400089
:040B2C000000400085
:040B30000000400081
:040B3400000040007D
:040B38000000400079
:040B3C000000400075
:040B40000000400071
:040B4400000040006D
:040B48000000400069
:040B4C000000400065
:040B50000000400061
:040B5400000040005D
:040B58000000400059
:040B5C000000400055
:040B60000000400051
:040B6400000040004D
:040B68000000400049
:040B6C000000400045
:040B70000000400041
:040B7400000040003D
:040B78000000400039
:040B7C000000400035
:040B80000000400031
:040B8400000040002D
:040B88000000400029
:040B8C000000400025
:040B90000000400021
:040B9400000040001D
:040B98000000400019
:040B9C000000400015
:040BA0000000400011
:040BA400000040000D
:040BA8000000400009
:040BAC000000400005
:040BB0000000400001
:040BB40000004000FD
:040BB80000004000F9
:040BBC0000004000F5
:040BC00000004000F1
:040BC40000004000ED
:040BC80000004000E9
:040BCC0000004000E5
:040BD00000004000E1
:040BD40000004000DD
:040BD80000004000D9
:040BDC0000004000D5
:040BE00000004000D1
:040BE40000004000CD
:040BE80000004000C9
:040BEC0000004000C5
:040BF00000004000C1
:040BF40000004000BD
:040BF80000004000B9
:040BFC0000004000B5
:040C000000004000B0
:040C040000004000AC
:040C080000004000A8
:040C0C0000004000A4
:040C100000004000A0
:040C1400000040009C
:040C18000000400098
:040C1C000000400094
:040C20000000400090
:040C2400000040008C
:040C28000000400088
:040C2C000000400084
:040C30000000400080
:040C3400000040007C
:040C38000000400078
:040C3C000000400074
:040C40000000400070
:040C4400000040006C
:040C48000000400068
:040C4C000000400064
:040C50000000400060
:040C5400000040005C
:040C58000000400058
:040C5C000000400054
:040C60000000400050
:040C6400000040004C
:040C68000000400048
:040C6C000000400044
:040C70000000400040
:040C7400000040003C
:040C78000000400038
:040C7C000000400034
:040C80000000400030
:040C8400000040002C
:040C88000000400028
:040C8C000000400024
:040C90000000400020
:040C9400000040001C
:040C98000000400018
:040C9C000000400014
:040CA0000000400010
:040CA400000040000C
:040CA8000000400008
:040CAC000000400004
:040CB0000000400000
:040CB40000004000FC
:040CB80000004000F8
:040CBC0000004000F4
:040CC00000004000F0
:040CC40000004000EC
:040CC80000004000E8
:040CCC0000004000E4
:040CD00000004000E0
:040CD40000004000DC
:040CD80000004000D8
:040CDC0000004000D4
:040CE00000004000D0
:040CE40000004000CC
:040CE80000004000C8
:040CEC0000004000C4
:040CF00000004000C0
:040CF40000004000BC
:040CF80000004000B8
:040CFC0000004000B4
:040D000000004000AF
:040D040000004000AB
:040D080000004000A7
:040D0C0000004000A3
:040D1000000040009F
:040D1400000040009B
:040D18000000400097
:040D1C000000400093
:040D2000000040008F
:040D2400000040008B
:040D28000000400087
:040D2C000000400083
:040D3000000040007F
:040D3400000040007B
:040D38000000400077
:040D3C000000400073
:040D4000000040006F
:040D4400000040006B
:040D48000000400067
:040D4C000000400063
:040D5000000040005F
:040D5400000040005B
:040D58000000400057
:040D5C000000400053
:040D6000000040004F
:040D6400000040004B
:040D68000000400047
:040D6C000000400043
:040D7000000040003F
:040D7400000040003B
:040D78000000400037
:040D7C000000400033
:040D8000000040002F
:040D8400000040002B
:040D88000000400027
:040D8C000000400023
:040D9000000040001F
:040D9400000040001B
:040D98000000400017
:040D9C000000400013
:040DA000000040000F
:040DA400000040000B
:040DA8000000400007
:040DAC000000400003
:040DB00000004000FF
:040DB40000004000FB
:040DB80000004000F7
:040DBC0000004000F3
:040DC00000004000EF
:040DC40000004000EB
:040DC80000004000E7
:040DCC0000004000E3
:040DD00000004000DF
:040DD40000004000DB
:040DD80000004000D7
:040DDC0000004000D3
:040DE00000004000CF
:040DE40000004000CB
:040DE80000004000C7
:040DEC0000004000C3
:040DF00000004000BF
:040DF40000004000BB
:040DF80000004000B7
:040DFC0000004000B3
:040E000000004000AE
:040E040000004000AA
:040E080000004000A6
:040E0C0000004000A2
:040E1000000040009E
:040E1400000040009A
:040E18000000400096
:040E1C000000400092
:040E2000000040008E
:040E2400000040008A
:040E28000000400086
:040E2C000000400082
:040E3000000040007E
:040E3400000040007A
:040E38000000400076
:040E3C000000400072
:040E4000000040006E
:040E4400000040006A
:040E48000000400066
:040E4C000000400062
:040E5000000040005E
:040E5400000040005A
:040E58000000400056
:040E5C000000400052
:040E6000000040004E
:040E6400000040004A
:040E68000000400046
:040E6C000000400042
:040E7000000040003E
:040E7400000040003A
:040E78000000400036
:040E7C000000400032
:040E8000000040002E
:040E8400000040002A
:040E88000000400026
:040E8C000000400022
:040E9000000040001E
:040E9400000040001A
:040E98000000400016
:040E9C000000400012
:040EA000000040000E
:040EA400000040000A
:040EA8000000400006
:040EAC000000400002
:040EB00000004000FE
:040EB40000004000FA
:040EB80000004000F6
:040EBC0000004000F2
:040EC00000004000EE
:040EC40000004000EA
:040EC80000004000E6
:040ECC0000004000E2
:040ED00000004000DE
:040ED40000004000DA
:040ED80000004000D6
:040EDC0000004000D2
:040EE00000004000CE
:040EE40000004000CA
:040EE80000004000C6
:040EEC0000004000C2
:040EF00000004000BE
:040EF40000004000BA
:040EF80000004000B6
:040EFC0000004000B2
:040F000000004000AD
:040F040000004000A9
:040F080000004000A5
:040F0C0000004000A1
:040F1000000040009D
:040F14000000400099
:040F18000000400095
:040F1C000000400091
:040F2000000040008D
:040F24000000400089
:040F28000000400085
:040F2C000000400081
:040F3000000040007D
:040F34000000400079
:040F38000000400075
:040F3C000000400071
:040F4000000040006D
:040F44000000400069
:040F48000000400065
:040F4C000000400061
:040F5000000040005D
:040F54000000400059
:040F58000000400055
:040F5C000000400051
:040F6000000040004D
:040F64000000400049
:040F68000000400045
:040F6C000000400041
:040F7000000040003D
:040F74000000400039
:040F78000000400035
:040F7C000000400031
:040F8000000040002D
:040F84000000400029
:040F88000000400025
:040F8C000000400021
:040F9000000040001D
:040F94000000400019
:040F98000000400015
:040F9C000000400011
:040FA000000040000D
:040FA4000000400009
:040FA8000000400005
:040FAC000000400001
:040FB00000004000FD
:040FB40000004000F9
:040FB80000004000F5
:040FBC0000004000F1
:040FC00000004000ED
:040FC40000004000E9
:040FC80000004000E5
:040FCC0000004000E1
:040FD00000004000DD
:040FD40000004000D9
:040FD80000004000D5
:040FDC0000004000D1
:040FE00000004000CD
:040FE40000004000C9
:040FE80000004000C5
:040FEC0000004000C1
:040FF00000004000BD
:040FF40000004000B9
:040FF80000004000B5
:040FFC0000004000B1
:00000001FF
