:020000003F5F60
:020001000019E4
:020002000003F9
:02000300000AF1
:020004003FFAC1
:020005000007F2
:020006003FE8D1
:02000700004EA9
:020008001FFDDA
:020009003F7442
:02000A00004DA7
:02000B003FCDE7
:02000C00001FD3
:02000D003FF4BE
:02000E000011DF
:02000F000011DE
:020010003FEDC2
:020011000023CA
:020012003FF3BA
:020013000025C6
:020014003FD0DB
:02001500004C9D
:020016003F7138
:02001700015690
:020018001FE4E3
:020019003E8C1B
:02001A0000BB29
:02001B003F8C18
:02001C0000479B
:02001D003FDBC7
:02001E000020C0
:02001F000008D7
:020020003FD5CA
:02002100002CB1
:020022003FE2BB
:0200230000409B
:020024003FA4F7
:02002500009346
:020026003EF7A3
:02002700026C69
:020028001FB007
:020029003DB5E3
:02002A000124AF
:02002B003F4E46
:02002C00006E64
:02002D003FC3CF
:02002E00002FA1
:02002F000000CF
:020030003FDAB5
:02003100003697
:020032003FD2BB
:02003300005B70
:020034003F7813
:0200350000DAEF
:020036003E7B0F
:02003700039133
:020038001F6146
:020039003CF198
:02003A0001853E
:02003B003F1470
:02003C00009230
:02003D003FADD5
:02003E00003D83
:02003F003FF789
:020040003FD2AD
:02004100003F7E
:020042003FC1BC
:02004300007645
:020044003F4C2F
:02004500012197
:020046003DFE7D
:0200470004C3F0
:020048001EF99F
:020049003C3F3A
:02004A0001E0D3
:02004B003EDD98
:02004C0000B4FE
:02004D003F98DA
:02004E00004A66
:02004F003FF080
:020050003FD29D
:02005100004865
:020052003FB0BD
:0200530000911A
:020054003F204B
:02005500016840
:020056003D81EA
:020057000600A1
:020058001E7711
:020059003BA1C9
:02005A0002336F
:02005B003EACB9
:02005C0000D3CF
:02005D003F85DD
:02005E0000564A
:02005F003FE878
:020060003FCD92
:0200610000514C
:020062003FA0BD
:0200630000ABF0
:020064003EF666
:0200650001ADEB
:020066003D0556
:02006700074749
:020068001DDD9C
:020069003B1743
:02006A00027D15
:02006B003E7FD6
:02006C0000F0A2
:02006D003F74DE
:02006E00006030
:02006F003FE16F
:020070003FCB84
:02007100005A33
:020072003F91BC
:0200730000C4C7
:020074003ECC80
:0200750001F197
:020076003C8BC1
:020077000897E8
:020078001D2B3E
:020079003AA0AB
:02007A0002BEC4
:02007B003E57EE
:02007C00010978
:02007D003F64DE
:02007E00006A16
:02007F003FDB65
:020080003FC877
:0200810000621B
:020082003F82BB
:0200830000DD9E
:020084003EA597
:02008500023146
:020086003C1626
:0200870009ED81
:020088001C62F8
:020089003A3CFF
:02008A0002F77B
:02008B003E3401
:02008C00011F52
:02008D003F57DB
:02008E000072FE
:02008F003FD65A
:020090003FC669
:02009100006A03
:020092003F74B9
:0200930000F477
:020094003E80AC
:02009500026EF9
:020096003BA687
:020097000B4814
:020098001B85C6
:0200990039EC40
:02009A0003263B
:02009B003E170E
:02009C00013130
:02009D003F4CD6
:02009E00007AE6
:02009F003FD14F
:0200A0003FC35C
:0200A1000071EC
:0200A2003F66B7
:0200A300010951
:0200A4003E5DBF
:0200A50002A6B1
:0200A6003B3BE2
:0200A7000CA7A4
:0200A8001A93A9
:0200A90039AF6D
:0200AA00034C05
:0200AB003DFF17
:0200AC00014011
:0200AD003F43CF
:0200AE000080D0
:0200AF003FCC44
:0200B0003FC24D
:0200B1000078D5
:0200B2003F5BB2
:0200B300011C2E
:0200B4003E3ECE
:0200B50002DA6D
:0200B6003AD935
:0200B7000E0633
:0200B800198E9F
:0200B900398488
:0200BA000368D9
:0200BB003DED19
:0200BC00014CF5
:0200BD003F3CC6
:0200BE000084BC
:0200BF003FC937
:0200C0003FC03F
:0200C100007DC0
:0200C2003F50AD
:0200C300012D0D
:0200C4003E22DA
:0200C50003082E
:0200C6003A807E
:0200C7000F66C2
:0200C8001878A6
:0200C900396C90
:0200CA00037BB6
:0200CB003DE115
:0200CC000154DD
:0200CD003F37BB
:0200CE000088A8
:0200CF003FC52B
:0200D0003FBF30
:0200D1000082AB
:0200D2003F47A6
:0200D300013BEF
:0200D4003E0BE1
:0200D5000330F6
:0200D6003A30BE
:0200D70010C354
:0200D8001753BC
:0200D900396488
:0200DA0003859C
:0200DB003DDA0C
:0200DC000158C9
:0200DD003F35AD
:0200DE00008A96
:0200DF003FC31D
:0200E0003FBF20
:0200E100008697
:0200E2003F409D
:0200E3000147D3
:0200E4003DF7E6
:0200E5000351C5
:0200E60039ECF3
:0200E700121BEA
:0200E8001620E0
:0200E900396E6E
:0200EA0003858C
:0200EB003DD9FD
:0200EC000159B8
:0200ED003F349E
:0200EE00008B85
:0200EF003FC10F
:0200F0003FBF10
:0200F100008984
:0200F2003F3A93
:0200F3000150BA
:0200F4003DE8E5
:0200F500036A9C
:0200F60039B51A
:0200F700136E86
:0200F80014E111
:0200F900398745
:0200FA00037D84
:0200FB003DDDE9
:0200FC000157AA
:0200FD003F368C
:0200FE00008A76
:0200FF003FC000
:020100003FC0FE
:02010100008A72
:020102003F3686
:020103000156A3
:020104003DDEDE
:02010500037C79
:02010600398B33
:0201070014B82A
:0201080013984A
:0201090039AF0C
:02010A00036D83
:02010B003DE7CE
:02010C0001519F
:02010D003F3978
:02010E00008966
:02010F003FBFF0
:020110003FC1ED
:02011100008B61
:020112003F3478
:02011300015990
:020114003DD9D3
:02011500038560
:0201160039703E
:0201170015F9D8
:0201180012468D
:0201190039E5C6
:02011A0003548C
:02011B003DF5B0
:02011C00014997
:02011D003F3F62
:02011E00008659
:02011F003FBFE0
:020120003FC3DB
:02012100008A52
:020122003F3468
:02012300015881
:020124003DDAC2
:02012500038550
:02012600396539
:02012700172D92
:0201280010EED7
:020129003A2773
:02012A0003349C
:02012B003E088C
:02012C00013D93
:02012D003F464B
:02012E0000834C
:02012F003FBFD0
:020130003FC5C9
:02013100008844
:020132003F3755
:02013300015475
:020134003DE0AC
:02013500037D48
:02013600396A24
:0201370018545A
:020138000F9224
:020139003A7515
:02013A00030DB3
:02013B003E1F65
:02013C00012F91
:02013D003F4F32
:02013E00007E41
:02013F003FC0BF
:020140003FC8B6
:02014100008537
:020142003F3B41
:02014300014D6C
:020144003DEC90
:02014500036B4A
:020146003980FE
:02014700196C31
:020148000E3275
:020149003ACDAD
:02014A0002E0D1
:02014B003E3A3A
:02014C00011E92
:02014D003F5918
:02014E00007936
:02014F003FC1AE
:020150003FCCA2
:0201510000802C
:020152003F422A
:02015300014267
:020154003DFD6F
:02015500035055
:0201560039A8C6
:020157001A7319
:020158000CD3C6
:020159003B2F3A
:02015A0002ADF4
:02015B003E590B
:02015C00010B95
:02015D003F65FC
:02015E0000722D
:02015F003FC39C
:020160003FD08E
:02016100007B21
:020162003F4B11
:02016300013366
:020164003E1447
:02016500032B6A
:0201660039E37B
:020167001B6714
:020168000B7416
:020169003B98C1
:02016A0002751C
:02016B003E7BD9
:02016C0000F69B
:02016D003F72DF
:02016E00006B24
:02016F003FC58A
:020170003FD579
:02017100007319
:020172003F56F6
:02017300012168
:020174003E301B
:0201750002FD89
:020176003A311C
:020177001C4822
:020178000A1863
:020179003C0840
:02017A00023948
:02017B003EA0A4
:02017C0000E0A1
:02017D003F80C1
:02017E0000631C
:02017F003FC778
:020180003FDB63
:02018100006B11
:020182003F63D9
:02018300010C6D
:020184003E52E9
:0201850002C6B0
:020186003A92AB
:020187001D1346
:0201880008C1AC
:020189003C7DBB
:02018A0001F979
:02018B003EC76D
:02018C0000C8A9
:02018D003F8FA2
:02018E00005B14
:02018F003FCB64
:020190003FE14D
:0201910000620A
:020192003F72BA
:0201930000F377
:020194003E79B2
:020195000286E0
:020196003B0725
:020197001DC881
:020198000771ED
:020199003CF533
:02019A0001B6AC
:02019B003EF034
:02019C0000AEB3
:02019D003F9E83
:02019E0000530C
:02019F003FCC53
:0201A0003FE737
:0201A100005705
:0201A2003F8399
:0201A30000D783
:0201A4003EA675
:0201A500023C1A
:0201A6003B8F8D
:0201A7001E65D3
:0201A800062926
:0201A9003D71A6
:0201AA000171E1
:0201AB003F1BF8
:0201AC000094BD
:0201AD003FAE63
:0201AE00004A05
:0201AF003FD13E
:0201B0003FEF1F
:0201B100004B01
:0201B2003F9676
:0201B30000B892
:0201B4003ED734
:0201B50001EB5C
:0201B6003C2BE0
:0201B7001EEA3E
:0201B80004EA57
:0201B9003DEE19
:0201BA00012A18
:0201BB003F46BD
:0201BC000079C8
:0201BD003FBF42
:0201BE000040FF
:0201BF003FD22D
:0201C0003FF608
:0201C100003EFE
:0201C2003FAA52
:0201C3000097A3
:0201C4003F0DED
:0201C5000191A6
:0201C6003CDA21
:0201C7001F56C1
:0201C80003B77B
:0201C9003E6B8B
:0201CA0000E350
:0201CB003F7281
:0201CC00005ED3
:0201CD003FD021
:0201CE000037F8
:0201CF003FD916
:0201D0003FFFEF
:0201D1000031FB
:0201D2003FC02C
:0201D3000073B7
:0201D4003F46A4
:0201D5000130F7
:0201D6003D9C4E
:0201D7001FA760
:0201D800029093
:0201D9003EE8FE
:0201DA00009C87
:0201DB003F9E45
:0201DC000043DE
:0201DD003FE001
:0201DE00002DF2
:0201DF003FD50A
:0201E000000716
:0201E1000022FA
:0201E2003FD804
:0201E300004CCE
:0201E4003F8456
:0201E50000C850
:0201E6003E7069
:0201E7001FDF18
:0201E80001789C
:0201E9003F6273
:0201EA000055BE
:0201EB003FCA09
:0201EC000028E9
:0201ED003FF1E0
:0201EE000024EB
:0201EF003FEAE5
:0201F0000010FD
:0201F1000013F9
:0201F2003FF1DB
:0201F3000024E6
:0201F4003FC406
:0201F500005BAD
:0201F6003F5672
:0201F7001FFBEC
:0201F800006E97
:0201F9003FDAEB
:0201FA000010F3
:0201FB003FF5CE
:0201FC00000EF3
:0201FD000001FF
:0201FE00001AE5
:0201FF003F8B34
:00000001FF
