:0400000000007FFF7E
:04000100E7087D8906
:04000200CF0576416F
:04000300B8E36A6D87
:04000400A57E5A82F9
:040005009593471D6B
:0400060089BF30FB83
:04000700827718F8EC
:040008008001000073
:040009008276E7080C
:04000A0089BECF05D7
:04000B009592B8E32F
:04000C00A57DA57EAB
:04000D00B8E295932D
:04000E00CF0489BFD3
:04000F00E707827706
:0400100000007FFF6E
:04001100F3747F61A4
:04001200E7087D89F5
:04001300DAD97A7C40
:04001400CF0576415D
:04001500C3AA70E228
:04001600B8E36A6D74
:04001700AECC62F118
:04001800A57E5A82E5
:040019009D0F5134B2
:04001A009593471D56
:04001B008F1E3C56A2
:04001C0089BF30FB6D
:04001D00858425278A
:04001E00827718F8D5
:04001F00809F0C8C26
:0400200000007FFF5E
:04002100DAD97A7C32
:04002200B8E36A6D68
:040023009D0F5134A8
:0400240089BF30FB65
:04002500809F0C8C20
:040026008276E708EF
:040027008F1DC3AABC
:04002800A57DA57E8F
:04002900C3A98F1EBA
:04002A00E7078277EB
:04002B000C8B809F1B
:04002C0030FA89BF5E
:04002D0051339D0F9F
:04002E006A6CB8E35D
:04002F007A7BDAD925
:00000001FF
