:0100000030CF
:0100010030CE
:0100020030CD
:0100030030CC
:0100040030CB
:0100050030CA
:0100060030C9
:0100070030C8
:0100080030C7
:0100090030C6
:01000A0030C5
:01000B0030C4
:01000C0030C3
:01000D0030C2
:01000E0030C1
:01000F0030C0
:0100100030BF
:0100110030BE
:0100120030BD
:0100130030BC
:0100140030BB
:0100150030BA
:0100160030B9
:0100170030B8
:0100180030B7
:0100190030B6
:01001A0030B5
:01001B0030B4
:01001C0030B3
:01001D0030B2
:01001E0030B1
:01001F0030B0
:0100200030AF
:0100210030AE
:0100220030AD
:0100230030AC
:0100240030AB
:0100250030AA
:0100260030A9
:0100270030A8
:0100280030A7
:0100290030A6
:01002A0030A5
:01002B0030A4
:01002C0030A3
:01002D0030A2
:01002E0030A1
:01002F0030A0
:01003000309F
:01003100309E
:01003200309D
:01003300309C
:01003400309B
:01003500309A
:010036003099
:010037003098
:010038003097
:010039003096
:01003A003095
:01003B003094
:01003C003093
:01003D003092
:01003E003091
:01003F003090
:01004000318E
:01004100318D
:01004200318C
:01004300318B
:01004400318A
:010045003189
:010046003188
:010047003187
:010048003186
:010049003185
:01004A003184
:01004B003183
:01004C003182
:01004D003181
:01004E003180
:01004F00317F
:01005000317E
:01005100317D
:01005200317C
:01005300317B
:01005400317A
:010055003179
:010056003178
:010057003177
:010058003176
:010059003175
:01005A003174
:01005B003173
:01005C003172
:01005D003171
:01005E003170
:01005F00316F
:01006000316E
:01006100316D
:01006200316C
:01006300316B
:01006400316A
:010065003169
:010066003168
:010067003167
:010068003166
:010069003165
:01006A003164
:01006B003163
:01006C003162
:01006D003161
:01006E003160
:01006F00315F
:01007000315E
:01007100315D
:01007200315C
:01007300315B
:01007400315A
:010075003159
:010076003158
:010077003157
:010078003156
:010079003155
:01007A003154
:01007B003153
:01007C003152
:01007D003151
:01007E003150
:01007F00314F
:01008000324D
:01008100324C
:01008200324B
:01008300324A
:010084003249
:010085003248
:010086003247
:010087003246
:010088003245
:010089003244
:01008A003243
:01008B003242
:01008C003241
:01008D003240
:01008E00323F
:01008F00323E
:01009000323D
:01009100323C
:01009200323B
:01009300323A
:010094003239
:010095003238
:010096003237
:010097003236
:010098003235
:010099003234
:01009A003233
:01009B003232
:01009C003231
:01009D003230
:01009E00322F
:01009F00322E
:0100A000322D
:0100A100322C
:0100A200322B
:0100A300322A
:0100A4003229
:0100A5003228
:0100A6003227
:0100A7003226
:0100A8003225
:0100A9003224
:0100AA003223
:0100AB003222
:0100AC003221
:0100AD003220
:0100AE00321F
:0100AF00321E
:0100B000321D
:0100B100321C
:0100B200321B
:0100B300321A
:0100B4003219
:0100B5003218
:0100B6003217
:0100B7003216
:0100B8003215
:0100B9003214
:0100BA003213
:0100BB003212
:0100BC003211
:0100BD003210
:0100BE00320F
:0100BF00320E
:0100C000330C
:0100C100330B
:0100C200330A
:0100C3003309
:0100C4003308
:0100C5003307
:0100C6003306
:0100C7003305
:0100C8003304
:0100C9003303
:0100CA003302
:0100CB003301
:0100CC003300
:0100CD0033FF
:0100CE0033FE
:0100CF0033FD
:0100D00033FC
:0100D10033FB
:0100D20033FA
:0100D30033F9
:0100D40033F8
:0100D50033F7
:0100D60033F6
:0100D70033F5
:0100D80033F4
:0100D90033F3
:0100DA0033F2
:0100DB0033F1
:0100DC0033F0
:0100DD0033EF
:0100DE0033EE
:0100DF0033ED
:0100E00033EC
:0100E10033EB
:0100E20033EA
:0100E30033E9
:0100E40033E8
:0100E50033E7
:0100E60033E6
:0100E70033E5
:0100E80033E4
:0100E90033E3
:0100EA0033E2
:0100EB0033E1
:0100EC0033E0
:0100ED0033DF
:0100EE0033DE
:0100EF0033DD
:0100F00033DC
:0100F10033DB
:0100F20033DA
:0100F30033D9
:0100F40033D8
:0100F50033D7
:0100F60033D6
:0100F70033D5
:0100F80033D4
:0100F90033D3
:0100FA0033D2
:0100FB0033D1
:0100FC0033D0
:0100FD0033CF
:0100FE0033CE
:0100FF0033CD
:00000001FF
